{"abi":[{"type":"function","name":"addPerson","inputs":[{"name":"_name","type":"string","internalType":"string"},{"name":"_favoriteNumber","type":"uint256","internalType":"uint256"}],"outputs":[],"stateMutability":"nonpayable"},{"type":"function","name":"listOfPeople","inputs":[{"name":"","type":"uint256","internalType":"uint256"}],"outputs":[{"name":"favoriteNumber","type":"uint256","internalType":"uint256"},{"name":"name","type":"string","internalType":"string"}],"stateMutability":"view"},{"type":"function","name":"nameToFavoriteNumber","inputs":[{"name":"","type":"string","internalType":"string"}],"outputs":[{"name":"","type":"uint256","internalType":"uint256"}],"stateMutability":"view"},{"type":"function","name":"retrieve","inputs":[],"outputs":[{"name":"","type":"uint256","internalType":"uint256"}],"stateMutability":"view"},{"type":"function","name":"store","inputs":[{"name":"_favoriteNumber","type":"uint256","internalType":"uint256"}],"outputs":[],"stateMutability":"nonpayable"}],"bytecode":{"object":"0x6080604052348015600e575f5ffd5b506109478061001c5f395ff3fe608060405234801561000f575f5ffd5b5060043610610055575f3560e01c80632e64cec1146100595780632ebce631146100775780636057361d146100a85780636f760f41146100c45780638bab8dd5146100e0575b5f5ffd5b610061610110565b60405161006e91906102ab565b60405180910390f35b610091600480360381019061008c91906102ff565b610118565b60405161009f92919061039a565b60405180910390f35b6100c260048036038101906100bd91906102ff565b6101cd565b005b6100de60048036038101906100d991906104f4565b6101e2565b005b6100fa60048036038101906100f5919061054e565b610266565b60405161010791906102ab565b60405180910390f35b5f5f54905090565b60018181548110610127575f80fd5b905f5260205f2090600202015f91509050805f01549080600101805461014c906105c2565b80601f0160208091040260200160405190810160405280929190818152602001828054610178906105c2565b80156101c35780601f1061019a576101008083540402835291602001916101c3565b820191905f5260205f20905b8154815290600101906020018083116101a657829003601f168201915b5050505050905082565b6005816101da919061061f565b5f8190555050565b6001604051806040016040528083815260200184815250908060018154018082558091505060019003905f5260205f2090600202015f909190919091505f820151815f0155602082015181600101908161023c91906107f2565b5050508060028360405161025091906108fb565b9081526020016040518091039020819055505050565b6002818051602081018201805184825260208301602085012081835280955050505050505f915090505481565b5f819050919050565b6102a581610293565b82525050565b5f6020820190506102be5f83018461029c565b92915050565b5f604051905090565b5f5ffd5b5f5ffd5b6102de81610293565b81146102e8575f5ffd5b50565b5f813590506102f9816102d5565b92915050565b5f60208284031215610314576103136102cd565b5b5f610321848285016102eb565b91505092915050565b5f81519050919050565b5f82825260208201905092915050565b8281835e5f83830152505050565b5f601f19601f8301169050919050565b5f61036c8261032a565b6103768185610334565b9350610386818560208601610344565b61038f81610352565b840191505092915050565b5f6040820190506103ad5f83018561029c565b81810360208301526103bf8184610362565b90509392505050565b5f5ffd5b5f5ffd5b7f4e487b71000000000000000000000000000000000000000000000000000000005f52604160045260245ffd5b61040682610352565b810181811067ffffffffffffffff82111715610425576104246103d0565b5b80604052505050565b5f6104376102c4565b905061044382826103fd565b919050565b5f67ffffffffffffffff821115610462576104616103d0565b5b61046b82610352565b9050602081019050919050565b828183375f83830152505050565b5f61049861049384610448565b61042e565b9050828152602081018484840111156104b4576104b36103cc565b5b6104bf848285610478565b509392505050565b5f82601f8301126104db576104da6103c8565b5b81356104eb848260208601610486565b91505092915050565b5f5f6040838503121561050a576105096102cd565b5b5f83013567ffffffffffffffff811115610527576105266102d1565b5b610533858286016104c7565b9250506020610544858286016102eb565b9150509250929050565b5f60208284031215610563576105626102cd565b5b5f82013567ffffffffffffffff8111156105805761057f6102d1565b5b61058c848285016104c7565b91505092915050565b7f4e487b71000000000000000000000000000000000000000000000000000000005f52602260045260245ffd5b5f60028204905060018216806105d957607f821691505b6020821081036105ec576105eb610595565b5b50919050565b7f4e487b71000000000000000000000000000000000000000000000000000000005f52601160045260245ffd5b5f61062982610293565b915061063483610293565b925082820190508082111561064c5761064b6105f2565b5b92915050565b5f819050815f5260205f209050919050565b5f6020601f8301049050919050565b5f82821b905092915050565b5f600883026106ae7fffffffffffffffffffffffffffffffffffffffffffffffffffffffffffffffff82610673565b6106b88683610673565b95508019841693508086168417925050509392505050565b5f819050919050565b5f6106f36106ee6106e984610293565b6106d0565b610293565b9050919050565b5f819050919050565b61070c836106d9565b610720610718826106fa565b84845461067f565b825550505050565b5f5f905090565b610737610728565b610742818484610703565b505050565b5b818110156107655761075a5f8261072f565b600181019050610748565b5050565b601f8211156107aa5761077b81610652565b61078484610664565b81016020851015610793578190505b6107a761079f85610664565b830182610747565b50505b505050565b5f82821c905092915050565b5f6107ca5f19846008026107af565b1980831691505092915050565b5f6107e283836107bb565b9150826002028217905092915050565b6107fb8261032a565b67ffffffffffffffff811115610814576108136103d0565b5b61081e82546105c2565b610829828285610769565b5f60209050601f83116001811461085a575f8415610848578287015190505b61085285826107d7565b8655506108b9565b601f19841661086886610652565b5f5b8281101561088f5784890151825560018201915060208501945060208101905061086a565b868310156108ac57848901516108a8601f8916826107bb565b8355505b6001600288020188555050505b505050505050565b5f81905092915050565b5f6108d58261032a565b6108df81856108c1565b93506108ef818560208601610344565b80840191505092915050565b5f61090682846108cb565b91508190509291505056fea2646970667358221220f657a902d47d2e27bacd0bcb7374af30c76b2be1c20a24bd59655b42964821e864736f6c634300081e0033","linkReferences":{}},"methodIdentifiers":{"addPerson(string,uint256)":"6f760f41","listOfPeople(uint256)":"2ebce631","nameToFavoriteNumber(string)":"8bab8dd5","retrieve()":"2e64cec1","store(uint256)":"6057361d"},"id":17}