{"abi":[{"type":"constructor","inputs":[],"stateMutability":"nonpayable"},{"type":"fallback","stateMutability":"payable"},{"type":"receive","stateMutability":"payable"},{"type":"function","name":"MINIMUM_USD","inputs":[],"outputs":[{"name":"","type":"uint256","internalType":"uint256"}],"stateMutability":"view"},{"type":"function","name":"addressToAmountFunded","inputs":[{"name":"","type":"address","internalType":"address"}],"outputs":[{"name":"","type":"uint256","internalType":"uint256"}],"stateMutability":"view"},{"type":"function","name":"fund","inputs":[],"outputs":[],"stateMutability":"payable"},{"type":"function","name":"funders","inputs":[{"name":"","type":"uint256","internalType":"uint256"}],"outputs":[{"name":"","type":"address","internalType":"address"}],"stateMutability":"view"},{"type":"function","name":"getVersion","inputs":[],"outputs":[{"name":"","type":"uint256","internalType":"uint256"}],"stateMutability":"view"},{"type":"function","name":"i_owner","inputs":[],"outputs":[{"name":"","type":"address","internalType":"address"}],"stateMutability":"view"},{"type":"function","name":"withdraw","inputs":[],"outputs":[],"stateMutability":"nonpayable"},{"type":"error","name":"NotOwner","inputs":[]}],"bytecode":{"object":"0x6080604052348015600e575f5ffd5b503360025f6101000a81548173ffffffffffffffffffffffffffffffffffffffff021916908373ffffffffffffffffffffffffffffffffffffffff160217905550610ce98061005c5f395ff3fe608060405260043610610073575f3560e01c80636b69a5921161004d5780636b69a59214610108578063b60d428814610132578063dba6335f1461013c578063dc0d3dff1461016657610082565b80630d8e6e2c1461008c5780633ccfd60b146100b65780633e47d6f3146100cc57610082565b36610082576100806101a2565b005b61008a6101a2565b005b348015610097575f5ffd5b506100a06102a9565b6040516100ad919061077d565b60405180910390f35b3480156100c1575f5ffd5b506100ca610335565b005b3480156100d7575f5ffd5b506100f260048036038101906100ed91906107f4565b610566565b6040516100ff919061077d565b60405180910390f35b348015610113575f5ffd5b5061011c61057a565b604051610129919061077d565b60405180910390f35b61013a6101a2565b005b348015610147575f5ffd5b50610150610586565b60405161015d919061082e565b60405180910390f35b348015610171575f5ffd5b5061018c60048036038101906101879190610871565b6105ab565b604051610199919061082e565b60405180910390f35b674563918244f400006101b4346105e6565b10156101f5576040517f08c379a00000000000000000000000000000000000000000000000000000000081526004016101ec906108f6565b60405180910390fd5b345f5f3373ffffffffffffffffffffffffffffffffffffffff1673ffffffffffffffffffffffffffffffffffffffff1681526020019081526020015f205f8282546102409190610941565b92505081905550600133908060018154018082558091505060019003905f5260205f20015f9091909190916101000a81548173ffffffffffffffffffffffffffffffffffffffff021916908373ffffffffffffffffffffffffffffffffffffffff160217905550565b5f5f73694aa1769357215de4fac081bf1f309adc32530690508073ffffffffffffffffffffffffffffffffffffffff166354fd4d506040518163ffffffff1660e01b8152600401602060405180830381865afa15801561030b573d5f5f3e3d5ffd5b505050506040513d601f19601f8201168201806040525081019061032f9190610988565b91505090565b60025f9054906101000a900473ffffffffffffffffffffffffffffffffffffffff1673ffffffffffffffffffffffffffffffffffffffff163373ffffffffffffffffffffffffffffffffffffffff16146103bb576040517f30cd747100000000000000000000000000000000000000000000000000000000815260040160405180910390fd5b5f5f90505b60018054905081101561045b575f600182815481106103e2576103e16109b3565b5b905f5260205f20015f9054906101000a900473ffffffffffffffffffffffffffffffffffffffff1690505f5f5f8373ffffffffffffffffffffffffffffffffffffffff1673ffffffffffffffffffffffffffffffffffffffff1681526020019081526020015f20819055505080806001019150506103c0565b505f67ffffffffffffffff811115610476576104756109e0565b5b6040519080825280602002602001820160405280156104a45781602001602082028036833780820191505090505b50600190805190602001906104ba9291906106c3565b505f3373ffffffffffffffffffffffffffffffffffffffff16476040516104e090610a3a565b5f6040518083038185875af1925050503d805f811461051a576040519150601f19603f3d011682016040523d82523d5f602084013e61051f565b606091505b5050905080610563576040517f08c379a000000000000000000000000000000000000000000000000000000000815260040161055a90610a98565b60405180910390fd5b50565b5f602052805f5260405f205f915090505481565b674563918244f4000081565b60025f9054906101000a900473ffffffffffffffffffffffffffffffffffffffff1681565b600181815481106105ba575f80fd5b905f5260205f20015f915054906101000a900473ffffffffffffffffffffffffffffffffffffffff1681565b5f5f6105f061061e565b90505f670de0b6b3a764000084836106089190610ab6565b6106129190610b24565b90508092505050919050565b5f5f73694aa1769357215de4fac081bf1f309adc32530690505f8173ffffffffffffffffffffffffffffffffffffffff1663feaf968c6040518163ffffffff1660e01b815260040160a060405180830381865afa158015610681573d5f5f3e3d5ffd5b505050506040513d601f19601f820116820180604052508101906106a59190610bc6565b5050509150506402540be400816106bc9190610c3d565b9250505090565b828054828255905f5260205f20908101928215610739579160200282015b82811115610738578251825f6101000a81548173ffffffffffffffffffffffffffffffffffffffff021916908373ffffffffffffffffffffffffffffffffffffffff160217905550916020019190600101906106e1565b5b509050610746919061074a565b5090565b5b80821115610761575f815f90555060010161074b565b5090565b5f819050919050565b61077781610765565b82525050565b5f6020820190506107905f83018461076e565b92915050565b5f5ffd5b5f73ffffffffffffffffffffffffffffffffffffffff82169050919050565b5f6107c38261079a565b9050919050565b6107d3816107b9565b81146107dd575f5ffd5b50565b5f813590506107ee816107ca565b92915050565b5f6020828403121561080957610808610796565b5b5f610816848285016107e0565b91505092915050565b610828816107b9565b82525050565b5f6020820190506108415f83018461081f565b92915050565b61085081610765565b811461085a575f5ffd5b50565b5f8135905061086b81610847565b92915050565b5f6020828403121561088657610885610796565b5b5f6108938482850161085d565b91505092915050565b5f82825260208201905092915050565b7f596f75206e65656420746f207370656e64206d6f7265204554482100000000005f82015250565b5f6108e0601b8361089c565b91506108eb826108ac565b602082019050919050565b5f6020820190508181035f83015261090d816108d4565b9050919050565b7f4e487b71000000000000000000000000000000000000000000000000000000005f52601160045260245ffd5b5f61094b82610765565b915061095683610765565b925082820190508082111561096e5761096d610914565b5b92915050565b5f8151905061098281610847565b92915050565b5f6020828403121561099d5761099c610796565b5b5f6109aa84828501610974565b91505092915050565b7f4e487b71000000000000000000000000000000000000000000000000000000005f52603260045260245ffd5b7f4e487b71000000000000000000000000000000000000000000000000000000005f52604160045260245ffd5b5f81905092915050565b50565b5f610a255f83610a0d565b9150610a3082610a17565b5f82019050919050565b5f610a4482610a1a565b9150819050919050565b7f43616c6c206661696c65640000000000000000000000000000000000000000005f82015250565b5f610a82600b8361089c565b9150610a8d82610a4e565b602082019050919050565b5f6020820190508181035f830152610aaf81610a76565b9050919050565b5f610ac082610765565b9150610acb83610765565b9250828202610ad981610765565b91508282048414831517610af057610aef610914565b5b5092915050565b7f4e487b71000000000000000000000000000000000000000000000000000000005f52601260045260245ffd5b5f610b2e82610765565b9150610b3983610765565b925082610b4957610b48610af7565b5b828204905092915050565b5f69ffffffffffffffffffff82169050919050565b610b7281610b54565b8114610b7c575f5ffd5b50565b5f81519050610b8d81610b69565b92915050565b5f819050919050565b610ba581610b93565b8114610baf575f5ffd5b50565b5f81519050610bc081610b9c565b92915050565b5f5f5f5f5f60a08688031215610bdf57610bde610796565b5b5f610bec88828901610b7f565b9550506020610bfd88828901610bb2565b9450506040610c0e88828901610974565b9350506060610c1f88828901610974565b9250506080610c3088828901610b7f565b9150509295509295909350565b5f610c4782610b93565b9150610c5283610b93565b9250828202610c6081610b93565b91507f800000000000000000000000000000000000000000000000000000000000000084145f84121615610c9757610c96610914565b5b8282058414831517610cac57610cab610914565b5b509291505056fea264697066735822122027238c05cb22ac49cfb589c5cd81d4d2eef2239c5abdcaa552fc1bb335db140d64736f6c634300081e0033","linkReferences":{}},"methodIdentifiers":{"MINIMUM_USD()":"6b69a592","addressToAmountFunded(address)":"3e47d6f3","fund()":"b60d4288","funders(uint256)":"dc0d3dff","getVersion()":"0d8e6e2c","i_owner()":"dba6335f","withdraw()":"3ccfd60b"},"id":18}