{"abi":[{"type":"constructor","inputs":[],"stateMutability":"nonpayable"},{"type":"fallback","stateMutability":"payable"},{"type":"receive","stateMutability":"payable"},{"type":"function","name":"MINIMUM_USD","inputs":[],"outputs":[{"name":"","type":"uint256","internalType":"uint256"}],"stateMutability":"view"},{"type":"function","name":"addressToAmountFunded","inputs":[{"name":"","type":"address","internalType":"address"}],"outputs":[{"name":"","type":"uint256","internalType":"uint256"}],"stateMutability":"view"},{"type":"function","name":"fund","inputs":[],"outputs":[],"stateMutability":"payable"},{"type":"function","name":"funders","inputs":[{"name":"","type":"uint256","internalType":"uint256"}],"outputs":[{"name":"","type":"address","internalType":"address"}],"stateMutability":"view"},{"type":"function","name":"getVersion","inputs":[],"outputs":[{"name":"","type":"uint256","internalType":"uint256"}],"stateMutability":"view"},{"type":"function","name":"i_owner","inputs":[],"outputs":[{"name":"","type":"address","internalType":"address"}],"stateMutability":"view"},{"type":"function","name":"withdraw","inputs":[],"outputs":[],"stateMutability":"nonpayable"},{"type":"error","name":"NotOwner","inputs":[]}],"bytecode":{"object":"0x6080604052348015600e575f5ffd5b503360025f6101000a81548173ffffffffffffffffffffffffffffffffffffffff021916908373ffffffffffffffffffffffffffffffffffffffff160217905550610e968061005c5f395ff3fe608060405260043610610073575f3560e01c80636b69a5921161004d5780636b69a59214610108578063b60d428814610132578063dba6335f1461013c578063dc0d3dff1461016657610082565b80630d8e6e2c1461008c5780633ccfd60b146100b65780633e47d6f3146100cc57610082565b36610082576100806101a2565b005b61008a6101a2565b005b348015610097575f5ffd5b506100a06102a9565b6040516100ad91906106d4565b60405180910390f35b3480156100c1575f5ffd5b506100ca610335565b005b3480156100d7575f5ffd5b506100f260048036038101906100ed919061074b565b61055f565b6040516100ff91906106d4565b60405180910390f35b348015610113575f5ffd5b5061011c610573565b60405161012991906106d4565b60405180910390f35b61013a6101a2565b005b348015610147575f5ffd5b5061015061057f565b60405161015d9190610785565b60405180910390f35b348015610171575f5ffd5b5061018c600480360381019061018791906107c8565b6105a4565b6040516101999190610785565b60405180910390f35b674563918244f400006101b4346105df565b10156101f5576040517f08c379a00000000000000000000000000000000000000000000000000000000081526004016101ec9061084d565b60405180910390fd5b345f5f3373ffffffffffffffffffffffffffffffffffffffff1673ffffffffffffffffffffffffffffffffffffffff1681526020019081526020015f205f8282546102409190610898565b92505081905550600133908060018154018082558091505060019003905f5260205f20015f9091909190916101000a81548173ffffffffffffffffffffffffffffffffffffffff021916908373ffffffffffffffffffffffffffffffffffffffff160217905550565b5f5f73694aa1769357215de4fac081bf1f309adc32530690508073ffffffffffffffffffffffffffffffffffffffff166354fd4d506040518163ffffffff1660e01b8152600401602060405180830381865afa15801561030b573d5f5f3e3d5ffd5b505050506040513d601f19601f8201168201806040525081019061032f91906108df565b91505090565b60025f9054906101000a900473ffffffffffffffffffffffffffffffffffffffff1673ffffffffffffffffffffffffffffffffffffffff163373ffffffffffffffffffffffffffffffffffffffff16146103bb576040517f30cd747100000000000000000000000000000000000000000000000000000000815260040160405180910390fd5b5f5f90505b60018054905081101561045b575f600182815481106103e2576103e161090a565b5b905f5260205f20015f9054906101000a900473ffffffffffffffffffffffffffffffffffffffff1690505f5f5f8373ffffffffffffffffffffffffffffffffffffffff1673ffffffffffffffffffffffffffffffffffffffff1681526020019081526020015f20819055505080806001019150506103c0565b505f67ffffffffffffffff81111561047657610475610937565b5b6040519080825280602002602001820160405280156104a45781602001602082028036833780820191505090505b50600190816104b39190610b77565b505f3373ffffffffffffffffffffffffffffffffffffffff16476040516104d990610c28565b5f6040518083038185875af1925050503d805f8114610513576040519150601f19603f3d011682016040523d82523d5f602084013e610518565b606091505b505090508061055c576040517f08c379a000000000000000000000000000000000000000000000000000000000815260040161055390610c86565b60405180910390fd5b50565b5f602052805f5260405f205f915090505481565b674563918244f4000081565b60025f9054906101000a900473ffffffffffffffffffffffffffffffffffffffff1681565b600181815481106105b3575f80fd5b905f5260205f20015f915054906101000a900473ffffffffffffffffffffffffffffffffffffffff1681565b5f5f6105e9610617565b90505f670de0b6b3a76400008483610601919061096e565b61060b9190610cd1565b90508092505050919050565b5f5f73694aa1769357215de4fac081bf1f309adc32530690505f8173ffffffffffffffffffffffffffffffffffffffff1663feaf968c6040518163ffffffff1660e01b815260040160a060405180830381865afa15801561067a573d5f5f3e3d5ffd5b505050506040513d601f19601f8201168201806040525081019061069e9190610d73565b5050509150506402540be400816106b59190610dea565b9250505090565b5f819050919050565b6106ce816106bc565b82525050565b5f6020820190506106e75f8301846106c5565b92915050565b5f5ffd5b5f73ffffffffffffffffffffffffffffffffffffffff82169050919050565b5f61071a826106f1565b9050919050565b61072a81610710565b8114610734575f5ffd5b50565b5f8135905061074581610721565b92915050565b5f602082840312156107605761075f6106ed565b5b5f61076d84828501610737565b91505092915050565b61077f81610710565b82525050565b5f6020820190506107985f830184610776565b92915050565b6107a7816106bc565b81146107b1575f5ffd5b50565b5f813590506107c28161079e565b92915050565b5f602082840312156107dd576107dc6106ed565b5b5f6107ea848285016107b4565b91505092915050565b5f82825260208201905092915050565b7f596f75206e65656420746f207370656e64206d6f7265204554482100000000005f82015250565b5f610837601b836107f3565b915061084282610803565b602082019050919050565b5f6020820190508181035f8301526108648161082b565b9050919050565b7f4e487b71000000000000000000000000000000000000000000000000000000005f52601160045260245ffd5b5f6108a2826106bc565b91506108ad836106bc565b92508282019050808211156108c5576108c461086b565b5b92915050565b5f815190506108d98161079e565b92915050565b5f602082840312156108f4576108f36106ed565b5b5f610901848285016108cb565b91505092915050565b7f4e487b71000000000000000000000000000000000000000000000000000000005f52603260045260245ffd5b7f4e487b71000000000000000000000000000000000000000000000000000000005f52604160045260245ffd5b5f81549050919050565b5f610978826106bc565b9150610983836106bc565b9250828202610991816106bc565b915082820484148315176109a8576109a761086b565b5b5092915050565b5f8190506001806001038301049050919050565b5f819050815f5260205f209050919050565b5f82821b905092915050565b5f60088302610a107fffffffffffffffffffffffffffffffffffffffffffffffffffffffffffffffff826109d5565b610a1a86836109d5565b95508019841693508086168417925050509392505050565b5f819050919050565b5f610a55610a50610a4b846106bc565b610a32565b6106bc565b9050919050565b5f819050919050565b610a6e83610a3b565b610a82610a7a82610a5c565b8484546109e1565b825550505050565b5f5f905090565b610a99610a8a565b610aa4818484610a65565b505050565b5f5b82811015610aca57610abf5f828401610a91565b600181019050610aab565b505050565b81831015610b0657610ae0826109af565b610ae9846109af565b610af2836109c3565b818101610b0183850382610aa9565b505050505b505050565b68010000000000000000821115610b2557610b24610937565b5b610b2e81610964565b828255610b3c838284610acf565b505050565b5f81519050919050565b5f610b568251610710565b80915050919050565b5f819050602082019050919050565b5f819050919050565b610b8082610b41565b67ffffffffffffffff811115610b9957610b98610937565b5b610ba38183610b0b565b610bac83610b5f565b610bb5836109c3565b600183045f5b81811015610bf2575f610bcd85610b4b565b610bd681610b6e565b8092506020870196505050808285015550600181019050610bbb565b50505050505050565b5f81905092915050565b50565b5f610c135f83610bfb565b9150610c1e82610c05565b5f82019050919050565b5f610c3282610c08565b9150819050919050565b7f43616c6c206661696c65640000000000000000000000000000000000000000005f82015250565b5f610c70600b836107f3565b9150610c7b82610c3c565b602082019050919050565b5f6020820190508181035f830152610c9d81610c64565b9050919050565b7f4e487b71000000000000000000000000000000000000000000000000000000005f52601260045260245ffd5b5f610cdb826106bc565b9150610ce6836106bc565b925082610cf657610cf5610ca4565b5b828204905092915050565b5f69ffffffffffffffffffff82169050919050565b610d1f81610d01565b8114610d29575f5ffd5b50565b5f81519050610d3a81610d16565b92915050565b5f819050919050565b610d5281610d40565b8114610d5c575f5ffd5b50565b5f81519050610d6d81610d49565b92915050565b5f5f5f5f5f60a08688031215610d8c57610d8b6106ed565b5b5f610d9988828901610d2c565b9550506020610daa88828901610d5f565b9450506040610dbb888289016108cb565b9350506060610dcc888289016108cb565b9250506080610ddd88828901610d2c565b9150509295509295909350565b5f610df482610d40565b9150610dff83610d40565b9250828202610e0d81610d40565b91507f800000000000000000000000000000000000000000000000000000000000000084145f84121615610e4457610e4361086b565b5b8282058414831517610e5957610e5861086b565b5b509291505056fea26469706673582212206dd2c19e803f536e0b88e4c5450a731ee60b2c7cbba11512456d1c18e3ee435264736f6c63430008210033","linkReferences":{}},"methodIdentifiers":{"MINIMUM_USD()":"6b69a592","addressToAmountFunded(address)":"3e47d6f3","fund()":"b60d4288","funders(uint256)":"dc0d3dff","getVersion()":"0d8e6e2c","i_owner()":"dba6335f","withdraw()":"3ccfd60b"},"id":24}